:020000020000FC
:0400000019C08BC0D8
:02001600A4C084
:02001A008DC097
:020020003CC0E2
:02002A002FC0E5
:1000340004E00EBF0FEF0DBF789400E600937C0040
:100044000FEE00937A0001E000937E0002E004B911
:1000540002E005B908EF0AB904E40BB900E807BDEA
:1000640003EC04BD01E005BD01E000936E0011271F
:1000740002E00093690001E00DBBA8EDB0E0222787
:1000840033270000FECFFFB6FF920F930091790053
:10009400009388000EC0FFB6FF920F93139508E3F8
:1000A4000BB901E1101305C05F9A002705BD5F98E5
:1000B40004D00F91FF90FFBE18950FEE00937A00C5
:1000C40000270093890000E80093880002EC009365
:1000D400800009E1009381000027009387000FEF5F
:1000E400009386000895002700937A000027009368
:1000F40089000093880002EC0093800009E10093DA
:1001040081000FE3009387000FEF0093860002E065
:1001140000936F000895FFB6FF920F9300916F0054
:1001240001FF01C004C000FD02C0DDDFC2CFC5DF96
:10013400C0CFFFB6FF920F9320FD04C0303831F0DA
:1001440021D0B7CF303429F027D0B3CF206024D0CA
:10015400B0CF02E000936F001FD0ABCFFFB6FF9289
:100164000F9320FD04C0303449F00CD0A2CF3030BE
:1001740011F012D09ECF2F7F05D09BCF01E00093CA
:100184006F0097CFF8940D91009389000D9100931F
:100194008800339578940895F8940E91009388001C
:1001A4000E91009389003A95789408950000000018
:1001B400000000000000000000000000000001003A
:1001C4000100020003000500070009000C001000F4
:1001D40015001A002100290032003D004900570093
:1001E400670079008D00A300BC00D800F700180157
:1001F4003E0166019201C201F6012D026A02AA02C1
:10020400EF0239038803DC0335049404F704610521
:10021400D0054406BF063F07C6075208E4087D0917
:100224001B0ABF0A6A0B1A0CD10C8D0D4F0E170F47
:10023400E40FB7108F116C124F13361422151216D7
:1002440007170018FC18FC19FF1A061C0E1D191EAE
:10025400271F35204621572269237B248D259F267D
:10026400AF27BF28CD29D92AE32BEA2CEE2DEE2E79
:10027400EB2FE330D631C432AD3390346D35433691
:100284001337DB379C385539053AAE3A4D3BE43BDE
:10029400713CF53C6F3DDF3D453EA13EF23E393FAA
:0C02A400753FA63FCD3FE83FF93FFF3F0C
:00000001FF
